{
  "_format": "hh-sol-artifact-1",
  "contractName": "CeloQuest",
  "sourceName": "contracts/CeloQuest.sol",
  "abi": [
    {
      "inputs": [],
      "stateMutability": "nonpayable",
      "type": "constructor"
    },
    {
      "inputs": [
        {
          "internalType": "address",
          "name": "owner",
          "type": "address"
        }
      ],
      "name": "OwnableInvalidOwner",
      "type": "error"
    },
    {
      "inputs": [
        {
          "internalType": "address",
          "name": "account",
          "type": "address"
        }
      ],
      "name": "OwnableUnauthorizedAccount",
      "type": "error"
    },
    {
      "inputs": [],
      "name": "ReentrancyGuardReentrantCall",
      "type": "error"
    },
    {
      "anonymous": false,
      "inputs": [
        {
          "indexed": true,
          "internalType": "address",
          "name": "previousOwner",
          "type": "address"
        },
        {
          "indexed": true,
          "internalType": "address",
          "name": "newOwner",
          "type": "address"
        }
      ],
      "name": "OwnershipTransferred",
      "type": "event"
    },
    {
      "anonymous": false,
      "inputs": [
        {
          "indexed": true,
          "internalType": "uint256",
          "name": "questId",
          "type": "uint256"
        },
        {
          "indexed": false,
          "internalType": "address",
          "name": "creator",
          "type": "address"
        },
        {
          "indexed": false,
          "internalType": "bool",
          "name": "isCommunity",
          "type": "bool"
        }
      ],
      "name": "QuestCreated",
      "type": "event"
    },
    {
      "anonymous": false,
      "inputs": [
        {
          "indexed": true,
          "internalType": "uint256",
          "name": "questId",
          "type": "uint256"
        },
        {
          "indexed": true,
          "internalType": "address",
          "name": "player",
          "type": "address"
        }
      ],
      "name": "QuestJoined",
      "type": "event"
    },
    {
      "anonymous": false,
      "inputs": [
        {
          "indexed": true,
          "internalType": "uint256",
          "name": "questId",
          "type": "uint256"
        },
        {
          "indexed": false,
          "internalType": "uint256",
          "name": "prizePool",
          "type": "uint256"
        },
        {
          "indexed": false,
          "internalType": "uint256",
          "name": "winners",
          "type": "uint256"
        }
      ],
      "name": "QuestResults",
      "type": "event"
    },
    {
      "inputs": [],
      "name": "CUSD_TOKEN",
      "outputs": [
        {
          "internalType": "address",
          "name": "",
          "type": "address"
        }
      ],
      "stateMutability": "view",
      "type": "function"
    },
    {
      "inputs": [
        {
          "internalType": "uint256",
          "name": "_entryFee",
          "type": "uint256"
        },
        {
          "internalType": "uint256",
          "name": "_durationInHours",
          "type": "uint256"
        },
        {
          "internalType": "bytes32[]",
          "name": "_correctAnswers",
          "type": "bytes32[]"
        }
      ],
      "name": "createCommunityQuest",
      "outputs": [
        {
          "internalType": "uint256",
          "name": "",
          "type": "uint256"
        }
      ],
      "stateMutability": "nonpayable",
      "type": "function"
    },
    {
      "inputs": [],
      "name": "currentQuestId",
      "outputs": [
        {
          "internalType": "uint256",
          "name": "",
          "type": "uint256"
        }
      ],
      "stateMutability": "view",
      "type": "function"
    },
    {
      "inputs": [],
      "name": "defaultEntryFee",
      "outputs": [
        {
          "internalType": "uint256",
          "name": "",
          "type": "uint256"
        }
      ],
      "stateMutability": "view",
      "type": "function"
    },
    {
      "inputs": [
        {
          "internalType": "uint256",
          "name": "_questId",
          "type": "uint256"
        }
      ],
      "name": "distributeRewards",
      "outputs": [],
      "stateMutability": "nonpayable",
      "type": "function"
    },
    {
      "inputs": [],
      "name": "getCurrentQuestId",
      "outputs": [
        {
          "internalType": "uint256",
          "name": "",
          "type": "uint256"
        }
      ],
      "stateMutability": "view",
      "type": "function"
    },
    {
      "inputs": [
        {
          "internalType": "address",
          "name": "_player",
          "type": "address"
        }
      ],
      "name": "hasJoinedCurrentQuest",
      "outputs": [
        {
          "internalType": "bool",
          "name": "",
          "type": "bool"
        }
      ],
      "stateMutability": "view",
      "type": "function"
    },
    {
      "inputs": [
        {
          "internalType": "uint256",
          "name": "_questId",
          "type": "uint256"
        },
        {
          "internalType": "address",
          "name": "_player",
          "type": "address"
        }
      ],
      "name": "hasJoinedQuest",
      "outputs": [
        {
          "internalType": "bool",
          "name": "",
          "type": "bool"
        }
      ],
      "stateMutability": "view",
      "type": "function"
    },
    {
      "inputs": [
        {
          "internalType": "bytes32[]",
          "name": "_answers",
          "type": "bytes32[]"
        }
      ],
      "name": "joinQuest",
      "outputs": [],
      "stateMutability": "nonpayable",
      "type": "function"
    },
    {
      "inputs": [
        {
          "internalType": "uint256",
          "name": "_questId",
          "type": "uint256"
        },
        {
          "internalType": "bytes32[]",
          "name": "_answers",
          "type": "bytes32[]"
        }
      ],
      "name": "joinQuestById",
      "outputs": [],
      "stateMutability": "nonpayable",
      "type": "function"
    },
    {
      "inputs": [],
      "name": "owner",
      "outputs": [
        {
          "internalType": "address",
          "name": "",
          "type": "address"
        }
      ],
      "stateMutability": "view",
      "type": "function"
    },
    {
      "inputs": [
        {
          "internalType": "uint256",
          "name": "",
          "type": "uint256"
        }
      ],
      "name": "quests",
      "outputs": [
        {
          "internalType": "uint256",
          "name": "id",
          "type": "uint256"
        },
        {
          "internalType": "address",
          "name": "creator",
          "type": "address"
        },
        {
          "internalType": "uint256",
          "name": "startTime",
          "type": "uint256"
        },
        {
          "internalType": "uint256",
          "name": "endTime",
          "type": "uint256"
        },
        {
          "internalType": "uint256",
          "name": "entryFee",
          "type": "uint256"
        },
        {
          "internalType": "uint256",
          "name": "prizePool",
          "type": "uint256"
        },
        {
          "internalType": "bool",
          "name": "resultsPublished",
          "type": "bool"
        },
        {
          "internalType": "bool",
          "name": "isCommunity",
          "type": "bool"
        }
      ],
      "stateMutability": "view",
      "type": "function"
    },
    {
      "inputs": [],
      "name": "renounceOwnership",
      "outputs": [],
      "stateMutability": "nonpayable",
      "type": "function"
    },
    {
      "inputs": [
        {
          "internalType": "bytes32[]",
          "name": "_correctAnswers",
          "type": "bytes32[]"
        }
      ],
      "name": "startNewDailyQuest",
      "outputs": [],
      "stateMutability": "nonpayable",
      "type": "function"
    },
    {
      "inputs": [
        {
          "internalType": "uint256",
          "name": "",
          "type": "uint256"
        },
        {
          "internalType": "address",
          "name": "",
          "type": "address"
        }
      ],
      "name": "submissions",
      "outputs": [
        {
          "internalType": "uint256",
          "name": "questId",
          "type": "uint256"
        },
        {
          "internalType": "address",
          "name": "player",
          "type": "address"
        },
        {
          "internalType": "bool",
          "name": "claimed",
          "type": "bool"
        }
      ],
      "stateMutability": "view",
      "type": "function"
    },
    {
      "inputs": [
        {
          "internalType": "address",
          "name": "newOwner",
          "type": "address"
        }
      ],
      "name": "transferOwnership",
      "outputs": [],
      "stateMutability": "nonpayable",
      "type": "function"
    },
    {
      "inputs": [],
      "name": "withdraw",
      "outputs": [],
      "stateMutability": "nonpayable",
      "type": "function"
    }
  ],
  "bytecode": "0x608060405267016345785d8a000060035534801561001c57600080fd5b5033600073ffffffffffffffffffffffffffffffffffffffff168173ffffffffffffffffffffffffffffffffffffffff16036100905760006040517f1e4fbdf7000000000000000000000000000000000000000000000000000000008152600401610087919061066d565b60405180910390fd5b61009f816100c260201b60201c565b506001808190555060006002819055506100bd61018660201b60201c565b61090d565b60008060009054906101000a900473ffffffffffffffffffffffffffffffffffffffff169050816000806101000a81548173ffffffffffffffffffffffffffffffffffffffff021916908373ffffffffffffffffffffffffffffffffffffffff1602179055508173ffffffffffffffffffffffffffffffffffffffff168173ffffffffffffffffffffffffffffffffffffffff167f8be0079c531659141344cd1fd0a4f28419497f9722a3daafe3b4186f6b6457e060405160405180910390a35050565b6000600367ffffffffffffffff8111156101a3576101a2610688565b5b6040519080825280602002602001820160405280156101d15781602001602082028036833780820191505090505b5090506040516020016101e39061070e565b604051602081830303815290604052805190602001208160008151811061020d5761020c610723565b5b6020026020010181815250506040516020016102289061079e565b604051602081830303815290604052805190602001208160018151811061025257610251610723565b5b60200260200101818152505060405160200161026d906107ff565b604051602081830303815290604052805190602001208160028151811061029757610296610723565b5b6020026020010181815250506102b2816102b560201b60201c565b50565b600260008154809291906102c89061084d565b919050555060405180610140016040528060025481526020016102ef6104f260201b60201c565b73ffffffffffffffffffffffffffffffffffffffff168152602001428152602001620151804261031f9190610895565b8152602001600354815260200160008152602001600067ffffffffffffffff81111561034e5761034d610688565b5b60405190808252806020026020018201604052801561037c5781602001602082028036833780820191505090505b508152602001828152602001600015158152602001600015158152506004600060025481526020019081526020016000206000820151816000015560208201518160010160006101000a81548173ffffffffffffffffffffffffffffffffffffffff021916908373ffffffffffffffffffffffffffffffffffffffff16021790555060408201518160020155606082015181600301556080820151816004015560a0820151816005015560c082015181600601908051906020019061044292919061051b565b5060e082015181600701908051906020019061045f9291906105a5565b506101008201518160080160006101000a81548160ff0219169083151502179055506101208201518160080160016101000a81548160ff0219169083151502179055509050506002547fcbe8afeecf2c488a35e2947e56d177b46ca4cc1c0dd942e41c524b23f6b21d6f6104d76104f260201b60201c565b60006040516104e79291906108e4565b60405180910390a250565b60008060009054906101000a900473ffffffffffffffffffffffffffffffffffffffff16905090565b828054828255906000526020600020908101928215610594579160200282015b828111156105935782518260006101000a81548173ffffffffffffffffffffffffffffffffffffffff021916908373ffffffffffffffffffffffffffffffffffffffff1602179055509160200191906001019061053b565b5b5090506105a191906105f2565b5090565b8280548282559060005260206000209081019282156105e1579160200282015b828111156105e05782518255916020019190600101906105c5565b5b5090506105ee919061060f565b5090565b5b8082111561060b5760008160009055506001016105f3565b5090565b5b80821115610628576000816000905550600101610610565b5090565b600073ffffffffffffffffffffffffffffffffffffffff82169050919050565b60006106578261062c565b9050919050565b6106678161064c565b82525050565b6000602082019050610682600083018461065e565b92915050565b7f4e487b7100000000000000000000000000000000000000000000000000000000600052604160045260246000fd5b600081905092915050565b7f43454c4f00000000000000000000000000000000000000000000000000000000600082015250565b60006106f86004836106b7565b9150610703826106c2565b600482019050919050565b6000610719826106eb565b9150819050919050565b7f4e487b7100000000000000000000000000000000000000000000000000000000600052603260045260246000fd5b7f5472756500000000000000000000000000000000000000000000000000000000600082015250565b60006107886004836106b7565b915061079382610752565b600482019050919050565b60006107a98261077b565b9150819050919050565b7f43656c6f00000000000000000000000000000000000000000000000000000000600082015250565b60006107e96004836106b7565b91506107f4826107b3565b600482019050919050565b600061080a826107dc565b9150819050919050565b7f4e487b7100000000000000000000000000000000000000000000000000000000600052601160045260246000fd5b6000819050919050565b600061085882610843565b91507fffffffffffffffffffffffffffffffffffffffffffffffffffffffffffffffff820361088a57610889610814565b5b600182019050919050565b60006108a082610843565b91506108ab83610843565b92508282019050808211156108c3576108c2610814565b5b92915050565b60008115159050919050565b6108de816108c9565b82525050565b60006040820190506108f9600083018561065e565b61090660208301846108d5565b9392505050565b6126988061091c6000396000f3fe608060405234801561001057600080fd5b506004361061010b5760003560e01c806361d1ddf7116100a2578063a4ba958411610071578063a4ba958414610284578063b0100dcd146102b4578063dab880f4146102d0578063e085f980146102ec578063f2fde38b146103235761010b565b806361d1ddf714610222578063681f47851461023e578063715018a61461025c5780638da5cb5b146102665761010b565b806345c3ce83116100de57806345c3ce83146101ac57806346ecb865146101ca57806347126ebd146101e857806359974e38146102065761010b565b80630ccbd885146101105780630e4dbf5c146101405780632c8b072c146101725780633ccfd60b146101a2575b600080fd5b61012a60048036038101906101259190611c05565b61033f565b6040516101379190611c83565b60405180910390f35b61015a60048036038101906101559190611cfc565b6105c4565b60405161016993929190611d66565b60405180910390f35b61018c60048036038101906101879190611cfc565b610628565b6040516101999190611d9d565b60405180910390f35b6101aa6106d5565b005b6101b4610805565b6040516101c19190611c83565b60405180910390f35b6101d261080b565b6040516101df9190611c83565b60405180910390f35b6101f0610815565b6040516101fd9190611db8565b60405180910390f35b610220600480360381019061021b9190611dd3565b61082d565b005b61023c60048036038101906102379190611e00565b610dfb565b005b610246610e0a565b6040516102539190611c83565b60405180910390f35b610264610e10565b005b61026e610e24565b60405161027b9190611db8565b60405180910390f35b61029e60048036038101906102999190611e49565b610e4d565b6040516102ab9190611d9d565b60405180910390f35b6102ce60048036038101906102c99190611e00565b610efb565b005b6102ea60048036038101906102e59190611e76565b610f0f565b005b61030660048036038101906103019190611dd3565b6113c2565b60405161031a989796959493929190611ed2565b60405180910390f35b61033d60048036038101906103389190611e49565b611444565b005b60008083118015610351575060a88311155b610390576040517f08c379a000000000000000000000000000000000000000000000000000000000815260040161038790611fad565b60405180910390fd5b600260008154809291906103a390611ffc565b919050555060405180610140016040528060025481526020013373ffffffffffffffffffffffffffffffffffffffff168152602001428152602001610e10856103ec9190612044565b426103f79190612086565b815260200185815260200160008152602001600067ffffffffffffffff81111561042457610423611a8c565b5b6040519080825280602002602001820160405280156104525781602001602082028036833780820191505090505b508152602001838152602001600015158152602001600115158152506004600060025481526020019081526020016000206000820151816000015560208201518160010160006101000a81548173ffffffffffffffffffffffffffffffffffffffff021916908373ffffffffffffffffffffffffffffffffffffffff16021790555060408201518160020155606082015181600301556080820151816004015560a0820151816005015560c082015181600601908051906020019061051892919061191b565b5060e08201518160070190805190602001906105359291906119a5565b506101008201518160080160006101000a81548160ff0219169083151502179055506101208201518160080160016101000a81548160ff0219169083151502179055509050506002547fcbe8afeecf2c488a35e2947e56d177b46ca4cc1c0dd942e41c524b23f6b21d6f3360016040516105b09291906120ba565b60405180910390a260025490509392505050565b6005602052816000526040600020602052806000526040600020600091509150508060000154908060010160009054906101000a900473ffffffffffffffffffffffffffffffffffffffff16908060030160009054906101000a900460ff16905083565b60008073ffffffffffffffffffffffffffffffffffffffff166005600085815260200190815260200160002060008473ffffffffffffffffffffffffffffffffffffffff1673ffffffffffffffffffffffffffffffffffffffff16815260200190815260200160002060010160009054906101000a900473ffffffffffffffffffffffffffffffffffffffff1673ffffffffffffffffffffffffffffffffffffffff161415905092915050565b6106dd6114ca565b600073765de816845861e75a25fca122bb6898b8b1282a73ffffffffffffffffffffffffffffffffffffffff166370a08231306040518263ffffffff1660e01b815260040161072c9190611db8565b602060405180830381865afa158015610749573d6000803e3d6000fd5b505050506040513d601f19601f8201168201806040525081019061076d91906120f8565b905073765de816845861e75a25fca122bb6898b8b1282a73ffffffffffffffffffffffffffffffffffffffff1663a9059cbb33836040518363ffffffff1660e01b81526004016107be929190612125565b6020604051808303816000875af11580156107dd573d6000803e3d6000fd5b505050506040513d601f19601f82011682018060405250810190610801919061217a565b5050565b60035481565b6000600254905090565b73765de816845861e75a25fca122bb6898b8b1282a81565b610835611551565b60006004600083815260200190815260200160002090508060010160009054906101000a900473ffffffffffffffffffffffffffffffffffffffff1673ffffffffffffffffffffffffffffffffffffffff163373ffffffffffffffffffffffffffffffffffffffff1614806108dc57506108ad610e24565b73ffffffffffffffffffffffffffffffffffffffff163373ffffffffffffffffffffffffffffffffffffffff16145b61091b576040517f08c379a0000000000000000000000000000000000000000000000000000000008152600401610912906121f3565b60405180910390fd5b80600301544211610961576040517f08c379a00000000000000000000000000000000000000000000000000000000081526004016109589061225f565b60405180910390fd5b8060080160009054906101000a900460ff16156109b3576040517f08c379a00000000000000000000000000000000000000000000000000000000081526004016109aa906122cb565b60405180910390fd5b600080826006018054905067ffffffffffffffff8111156109d7576109d6611a8c565b5b604051908082528060200260200182016040528015610a055781602001602082028036833780820191505090505b50905060005b8360060180549050811015610bd2576000846006018281548110610a3257610a316122eb565b5b9060005260206000200160009054906101000a900473ffffffffffffffffffffffffffffffffffffffff16905060006005600088815260200190815260200160002060008373ffffffffffffffffffffffffffffffffffffffff1673ffffffffffffffffffffffffffffffffffffffff1681526020019081526020016000209050610b6181600201805480602002602001604051908101604052809291908181526020018280548015610b0457602002820191906000526020600020905b815481526020019060010190808311610af0575b505050505087600701805480602002602001604051908101604052809291908181526020018280548015610b5757602002820191906000526020600020905b815481526020019060010190808311610b43575b5050505050611597565b15610bc35781848681518110610b7a57610b796122eb565b5b602002602001019073ffffffffffffffffffffffffffffffffffffffff16908173ffffffffffffffffffffffffffffffffffffffff16815250508480610bbf90611ffc565b9550505b50508080600101915050610a0b565b50600082118015610be7575060008360050154115b15610d92576000828460050154610bfe9190612349565b905060005b83811015610d8f576001600560008881526020019081526020016000206000858481518110610c3557610c346122eb565b5b602002602001015173ffffffffffffffffffffffffffffffffffffffff1673ffffffffffffffffffffffffffffffffffffffff16815260200190815260200160002060030160006101000a81548160ff021916908315150217905550600073765de816845861e75a25fca122bb6898b8b1282a73ffffffffffffffffffffffffffffffffffffffff1663a9059cbb858481518110610cd657610cd56122eb565b5b6020026020010151856040518363ffffffff1660e01b8152600401610cfc929190612125565b6020604051808303816000875af1158015610d1b573d6000803e3d6000fd5b505050506040513d601f19601f82011682018060405250810190610d3f919061217a565b905080610d81576040517f08c379a0000000000000000000000000000000000000000000000000000000008152600401610d78906123c6565b60405180910390fd5b508080600101915050610c03565b50505b60018360080160006101000a81548160ff021916908315150217905550837f4ef595dd1bf8d0a3bb25805a697d7e6ee7aefe7e5f8e2da0fbf8baf830ff7a95846005015484604051610de59291906123e6565b60405180910390a2505050610df8611615565b50565b610e0760025482610f0f565b50565b60025481565b610e186114ca565b610e22600061161e565b565b60008060009054906101000a900473ffffffffffffffffffffffffffffffffffffffff16905090565b60008073ffffffffffffffffffffffffffffffffffffffff1660056000600254815260200190815260200160002060008473ffffffffffffffffffffffffffffffffffffffff1673ffffffffffffffffffffffffffffffffffffffff16815260200190815260200160002060010160009054906101000a900473ffffffffffffffffffffffffffffffffffffffff1673ffffffffffffffffffffffffffffffffffffffff1614159050919050565b610f036114ca565b610f0c816116e2565b50565b610f17611551565b60006004600084815260200190815260200160002090506000816000015403610f75576040517f08c379a0000000000000000000000000000000000000000000000000000000008152600401610f6c9061245b565b60405180910390fd5b80600301544210610fbb576040517f08c379a0000000000000000000000000000000000000000000000000000000008152600401610fb2906124c7565b60405180910390fd5b8060070180549050825114611005576040517f08c379a0000000000000000000000000000000000000000000000000000000008152600401610ffc90612533565b60405180910390fd5b600073ffffffffffffffffffffffffffffffffffffffff166005600085815260200190815260200160002060003373ffffffffffffffffffffffffffffffffffffffff1673ffffffffffffffffffffffffffffffffffffffff16815260200190815260200160002060010160009054906101000a900473ffffffffffffffffffffffffffffffffffffffff1673ffffffffffffffffffffffffffffffffffffffff16146110e7576040517f08c379a00000000000000000000000000000000000000000000000000000000081526004016110de9061259f565b60405180910390fd5b6000816004015411156111f157600073765de816845861e75a25fca122bb6898b8b1282a73ffffffffffffffffffffffffffffffffffffffff166323b872dd333085600401546040518463ffffffff1660e01b815260040161114b939291906125bf565b6020604051808303816000875af115801561116a573d6000803e3d6000fd5b505050506040513d601f19601f8201168201806040525081019061118e919061217a565b9050806111d0576040517f08c379a00000000000000000000000000000000000000000000000000000000081526004016111c790612642565b60405180910390fd5b81600401548260050160008282546111e89190612086565b92505081905550505b80600601339080600181540180825580915050600190039060005260206000200160009091909190916101000a81548173ffffffffffffffffffffffffffffffffffffffff021916908373ffffffffffffffffffffffffffffffffffffffff16021790555060405180608001604052808481526020013373ffffffffffffffffffffffffffffffffffffffff168152602001838152602001600015158152506005600085815260200190815260200160002060003373ffffffffffffffffffffffffffffffffffffffff1673ffffffffffffffffffffffffffffffffffffffff1681526020019081526020016000206000820151816000015560208201518160010160006101000a81548173ffffffffffffffffffffffffffffffffffffffff021916908373ffffffffffffffffffffffffffffffffffffffff160217905550604082015181600201908051906020019061134d9291906119a5565b5060608201518160030160006101000a81548160ff0219169083151502179055509050503373ffffffffffffffffffffffffffffffffffffffff16837ff6274a6be8be8dcefad9914f7556a14333216390d2468f1b83669847b9ef193660405160405180910390a3506113be611615565b5050565b60046020528060005260406000206000915090508060000154908060010160009054906101000a900473ffffffffffffffffffffffffffffffffffffffff16908060020154908060030154908060040154908060050154908060080160009054906101000a900460ff16908060080160019054906101000a900460ff16905088565b61144c6114ca565b600073ffffffffffffffffffffffffffffffffffffffff168173ffffffffffffffffffffffffffffffffffffffff16036114be5760006040517f1e4fbdf70000000000000000000000000000000000000000000000000000000081526004016114b59190611db8565b60405180910390fd5b6114c78161161e565b50565b6114d2611913565b73ffffffffffffffffffffffffffffffffffffffff166114f0610e24565b73ffffffffffffffffffffffffffffffffffffffff161461154f57611513611913565b6040517f118cdaa70000000000000000000000000000000000000000000000000000000081526004016115469190611db8565b60405180910390fd5b565b60026001540361158d576040517f3ee5aeb500000000000000000000000000000000000000000000000000000000815260040160405180910390fd5b6002600181905550565b600081518351146115ab576000905061160f565b60005b8351811015611609578281815181106115ca576115c96122eb565b5b60200260200101518482815181106115e5576115e46122eb565b5b6020026020010151146115fc57600091505061160f565b80806001019150506115ae565b50600190505b92915050565b60018081905550565b60008060009054906101000a900473ffffffffffffffffffffffffffffffffffffffff169050816000806101000a81548173ffffffffffffffffffffffffffffffffffffffff021916908373ffffffffffffffffffffffffffffffffffffffff1602179055508173ffffffffffffffffffffffffffffffffffffffff168173ffffffffffffffffffffffffffffffffffffffff167f8be0079c531659141344cd1fd0a4f28419497f9722a3daafe3b4186f6b6457e060405160405180910390a35050565b600260008154809291906116f590611ffc565b91905055506040518061014001604052806002548152602001611716610e24565b73ffffffffffffffffffffffffffffffffffffffff16815260200142815260200162015180426117469190612086565b8152602001600354815260200160008152602001600067ffffffffffffffff81111561177557611774611a8c565b5b6040519080825280602002602001820160405280156117a35781602001602082028036833780820191505090505b508152602001828152602001600015158152602001600015158152506004600060025481526020019081526020016000206000820151816000015560208201518160010160006101000a81548173ffffffffffffffffffffffffffffffffffffffff021916908373ffffffffffffffffffffffffffffffffffffffff16021790555060408201518160020155606082015181600301556080820151816004015560a0820151816005015560c082015181600601908051906020019061186992919061191b565b5060e08201518160070190805190602001906118869291906119a5565b506101008201518160080160006101000a81548160ff0219169083151502179055506101208201518160080160016101000a81548160ff0219169083151502179055509050506002547fcbe8afeecf2c488a35e2947e56d177b46ca4cc1c0dd942e41c524b23f6b21d6f6118f8610e24565b60006040516119089291906120ba565b60405180910390a250565b600033905090565b828054828255906000526020600020908101928215611994579160200282015b828111156119935782518260006101000a81548173ffffffffffffffffffffffffffffffffffffffff021916908373ffffffffffffffffffffffffffffffffffffffff1602179055509160200191906001019061193b565b5b5090506119a191906119f2565b5090565b8280548282559060005260206000209081019282156119e1579160200282015b828111156119e05782518255916020019190600101906119c5565b5b5090506119ee9190611a0f565b5090565b5b80821115611a0b5760008160009055506001016119f3565b5090565b5b80821115611a28576000816000905550600101611a10565b5090565b6000604051905090565b600080fd5b600080fd5b6000819050919050565b611a5381611a40565b8114611a5e57600080fd5b50565b600081359050611a7081611a4a565b92915050565b600080fd5b6000601f19601f8301169050919050565b7f4e487b7100000000000000000000000000000000000000000000000000000000600052604160045260246000fd5b611ac482611a7b565b810181811067ffffffffffffffff82111715611ae357611ae2611a8c565b5b80604052505050565b6000611af6611a2c565b9050611b028282611abb565b919050565b600067ffffffffffffffff821115611b2257611b21611a8c565b5b602082029050602081019050919050565b600080fd5b6000819050919050565b611b4b81611b38565b8114611b5657600080fd5b50565b600081359050611b6881611b42565b92915050565b6000611b81611b7c84611b07565b611aec565b90508083825260208201905060208402830185811115611ba457611ba3611b33565b5b835b81811015611bcd5780611bb98882611b59565b845260208401935050602081019050611ba6565b5050509392505050565b600082601f830112611bec57611beb611a76565b5b8135611bfc848260208601611b6e565b91505092915050565b600080600060608486031215611c1e57611c1d611a36565b5b6000611c2c86828701611a61565b9350506020611c3d86828701611a61565b925050604084013567ffffffffffffffff811115611c5e57611c5d611a3b565b5b611c6a86828701611bd7565b9150509250925092565b611c7d81611a40565b82525050565b6000602082019050611c986000830184611c74565b92915050565b600073ffffffffffffffffffffffffffffffffffffffff82169050919050565b6000611cc982611c9e565b9050919050565b611cd981611cbe565b8114611ce457600080fd5b50565b600081359050611cf681611cd0565b92915050565b60008060408385031215611d1357611d12611a36565b5b6000611d2185828601611a61565b9250506020611d3285828601611ce7565b9150509250929050565b611d4581611cbe565b82525050565b60008115159050919050565b611d6081611d4b565b82525050565b6000606082019050611d7b6000830186611c74565b611d886020830185611d3c565b611d956040830184611d57565b949350505050565b6000602082019050611db26000830184611d57565b92915050565b6000602082019050611dcd6000830184611d3c565b92915050565b600060208284031215611de957611de8611a36565b5b6000611df784828501611a61565b91505092915050565b600060208284031215611e1657611e15611a36565b5b600082013567ffffffffffffffff811115611e3457611e33611a3b565b5b611e4084828501611bd7565b91505092915050565b600060208284031215611e5f57611e5e611a36565b5b6000611e6d84828501611ce7565b91505092915050565b60008060408385031215611e8d57611e8c611a36565b5b6000611e9b85828601611a61565b925050602083013567ffffffffffffffff811115611ebc57611ebb611a3b565b5b611ec885828601611bd7565b9150509250929050565b600061010082019050611ee8600083018b611c74565b611ef5602083018a611d3c565b611f026040830189611c74565b611f0f6060830188611c74565b611f1c6080830187611c74565b611f2960a0830186611c74565b611f3660c0830185611d57565b611f4360e0830184611d57565b9998505050505050505050565b600082825260208201905092915050565b7f4475726174696f6e20312d31363820686f757273000000000000000000000000600082015250565b6000611f97601483611f50565b9150611fa282611f61565b602082019050919050565b60006020820190508181036000830152611fc681611f8a565b9050919050565b7f4e487b7100000000000000000000000000000000000000000000000000000000600052601160045260246000fd5b600061200782611a40565b91507fffffffffffffffffffffffffffffffffffffffffffffffffffffffffffffffff820361203957612038611fcd565b5b600182019050919050565b600061204f82611a40565b915061205a83611a40565b925082820261206881611a40565b9150828204841483151761207f5761207e611fcd565b5b5092915050565b600061209182611a40565b915061209c83611a40565b92508282019050808211156120b4576120b3611fcd565b5b92915050565b60006040820190506120cf6000830185611d3c565b6120dc6020830184611d57565b9392505050565b6000815190506120f281611a4a565b92915050565b60006020828403121561210e5761210d611a36565b5b600061211c848285016120e3565b91505092915050565b600060408201905061213a6000830185611d3c565b6121476020830184611c74565b9392505050565b61215781611d4b565b811461216257600080fd5b50565b6000815190506121748161214e565b92915050565b6000602082840312156121905761218f611a36565b5b600061219e84828501612165565b91505092915050565b7f4e6f7420617574686f72697a6564000000000000000000000000000000000000600082015250565b60006121dd600e83611f50565b91506121e8826121a7565b602082019050919050565b6000602082019050818103600083015261220c816121d0565b9050919050565b7f5175657374206e6f74206f766572000000000000000000000000000000000000600082015250565b6000612249600e83611f50565b915061225482612213565b602082019050919050565b600060208201905081810360008301526122788161223c565b9050919050565b7f5265776172647320616c72656164792064697374726962757465640000000000600082015250565b60006122b5601b83611f50565b91506122c08261227f565b602082019050919050565b600060208201905081810360008301526122e4816122a8565b9050919050565b7f4e487b7100000000000000000000000000000000000000000000000000000000600052603260045260246000fd5b7f4e487b7100000000000000000000000000000000000000000000000000000000600052601260045260246000fd5b600061235482611a40565b915061235f83611a40565b92508261236f5761236e61231a565b5b828204905092915050565b7f526577617264207472616e73666572206661696c656400000000000000000000600082015250565b60006123b0601683611f50565b91506123bb8261237a565b602082019050919050565b600060208201905081810360008301526123df816123a3565b9050919050565b60006040820190506123fb6000830185611c74565b6124086020830184611c74565b9392505050565b7f517565737420646f6573206e6f74206578697374000000000000000000000000600082015250565b6000612445601483611f50565b91506124508261240f565b602082019050919050565b6000602082019050818103600083015261247481612438565b9050919050565b7f51756573742068617320656e6465640000000000000000000000000000000000600082015250565b60006124b1600f83611f50565b91506124bc8261247b565b602082019050919050565b600060208201905081810360008301526124e0816124a4565b9050919050565b7f57726f6e67206e756d626572206f6620616e7377657273000000000000000000600082015250565b600061251d601783611f50565b9150612528826124e7565b602082019050919050565b6000602082019050818103600083015261254c81612510565b9050919050565b7f416c7265616479206a6f696e6564000000000000000000000000000000000000600082015250565b6000612589600e83611f50565b915061259482612553565b602082019050919050565b600060208201905081810360008301526125b88161257c565b9050919050565b60006060820190506125d46000830186611d3c565b6125e16020830185611d3c565b6125ee6040830184611c74565b949350505050565b7f63555344207472616e73666572206661696c6564000000000000000000000000600082015250565b600061262c601483611f50565b9150612637826125f6565b602082019050919050565b6000602082019050818103600083015261265b8161261f565b905091905056fea2646970667358221220ba82369c42f6ecc02ec192675c75e48021ce37ffc90ecf8cdc6497960d35287b64736f6c634300081c0033",
  "linkReferences": {},
  "deployedLinkReferences": {}
}